:020000020000FC
:100000000C9435068F9A07C08F9A00C0F1E0E6B3D2
:10001000FFB6E4BA0994F2E0E6B3FFB609940C9493
:0600200025000C943000E5
:10002A0064FFFECF5F9BFCCFACB0AC92A395C394A8
:0C003A00CC2809F0F5CFCA94B394F2CFA3
:0C004A008F98839BFECFD4BAFFBE1895A0
:0A0060008F98829BFECFFFBE18951B
:1000E00000270FBB0EBBE09A0DB31CEC011399CF98
:0400F0000C94801FCD
:1001000043504320424F4F535445522B0D0A444510
:1001100056454C4F5045442042590D0A41475241E3
:1001200046494F54495320504554524F53200D0ACD
:1001300056455253494F4E20312E35420D0A4170DB
:1001400072696C2C2031362C2032303036200D0A6A
:100150000D0A616E746974656340686F746D6169DE
:060160006C2E636F6D00C0
:100200004EC250C258C25AC278C27DC282C293C284
:1002100006CFCCC2DEC2B5C2E4C2ECC202C31DC36B
:100220000CC314C3B3C3FBCEFACEF5C169C36CC310
:1002300079C38FC392C39EC306C50BC525C316C31E
:1002400032C33FC342C345C348C313C23AC233C2D9
:10025000ECC1F3C1FEC1E3CEE2CEE1CEE0CEDFCE13
:10026000DECEDDCEDCCEDBCEDACED9CED8CED7CE4A
:10027000D6CED5CED4CED3CED2CED1CED0CECFCE7A
:10028000CECECDCECCCECBCECACEC9CEC8CEC7CEAA
:10029000C6CEC5CEC4CEC3CEC2CEC1CEC0CEBFCEDA
:1002A000BECEBDCEBCCEBBCEBACEB9CEB8CEB7CE0A
:1002B000B6CEB5CEB4CEB3CEB2CEB1CEB0CEAFCE3A
:1002C000AECEADCEACCEABCEAACEA9CEA8CEA7CE6A
:1002D000A6CEA5CEA4CEA3CEA2CEA1CEA0CE9FCE9A
:1002E0009ECE9DCE9CCE9BCE9ACE99CE98CE97CECA
:1002F00096CE95CE94CE93CE92CE91CE90CE8FCEFA
:100300008ECE8DCE8CCE8BCE8ACE89CE88CE87CE29
:1003100086CE85CE84CE83CE82CE81CE80CE7FCE59
:100320007ECE7DCE7CCE7BCE7ACE79CE78CE77CE89
:1003300076CE75CE74CE73CE72CE71CE70CE6FCEB9
:100340006ECE6DCE6CCE6BCE6ACE69CE68CE67CEE9
:1003500066CE65CE64CE63CE62CE61CE60CE5FCE19
:100360005ECE5DCE5CCE5BCE5ACE59CE58CE57CE49
:1003700056CE55CE54CE53CE52CE51CE50CE4FCE79
:100380004ECE4DCE4CCE4BCE4ACE49CE48CE47CEA9
:1003900046CE45CE44CE43CE42CE41CE40CE3FCED9
:1003A0003ECE3DCE3CCE3BCE3ACE39CE38CE37CE09
:1003B00036CE35CE34CE33CE32CE31CE30CE2FCE39
:1003C0002ECE2DCE2CCE2BCE2ACE29CE28CE27CE69
:1003D00026CE25CE24CE23CE22CE21CE20CE1FCE99
:1003E0001ECE1DCE1CCE1BCE1ACE19CE18CE17CEC9
:1003F00016CE15CE14CE13CE12CE11CE10CE0FCEF9
:1004000034C433C452C154C17BC180C189C19FC1AE
:10041000BAC107CEE2C1A8C1E8C1F0C1F3C121C28F
:1004200010C2FFCDBBC2ECC0EDC0F9C071C275C235
:10043000F8CD97C29BC2F5CD08C4F3CD2CC21DC226
:10044000F0CD4FC252C2EDCDECCD22C140C151C161
:10045000F0C0F9C006C1E5CDE4CDE3CDE2CDE1CDFC
:10046000E0CDDFCDDECDDDCDDCCDDBCDDACDD9CD40
:10047000D8CDD7CDD6CDD5CDD4CDD3CDD2CDD1CD70
:10048000D0CDCFCDCECDCDCDCCCDCBCDCACDC9CDA0
:10049000C8CDC7CDC6CDC5CDC4CDC3CDC2CDC1CDD0
:1004A000C0CDBFCDBECDBDCDBCCDBBCDBACDB9CD00
:1004B000B8CDB7CDB6CDB5CDB4CDB3CDB2CDB1CD30
:1004C000B0CDAFCDAECDADCDACCDABCDAACDA9CD60
:1004D000A8CDA7CDA6CDA5CDA4CDA3CDA2CDA1CD90
:1004E000A0CD9FCD9ECD9DCD9CCD9BCD9ACD99CDC0
:1004F00098CD97CD96CD95CD94CD93CD92CD91CDF0
:1005000090CD8FCD8ECD8DCD8CCD8BCD8ACD89CD1F
:1005100088CD87CD86CD85CD84CD83CD82CD81CD4F
:1005200080CD7FCD7ECD7DCD7CCD7BCD7ACD79CD7F
:1005300078CD77CD76CD75CD74CD73CD72CD71CDAF
:1005400070CD6FCD6ECD6DCD6CCD6BCD6ACD69CDDF
:1005500068CD67CD66CD65CD64CD63CD62CD61CD0F
:1005600060CD5FCD5ECD5DCD5CCD5BCD5ACD59CD3F
:1005700058CD57CD56CD55CD54CD53CD52CD51CD6F
:1005800050CD4FCD4ECD4DCD4CCD4BCD4ACD49CD9F
:1005900048CD47CD46CD45CD44CD43CD42CD41CDCF
:1005A00040CD3FCD3ECD3DCD3CCD3BCD3ACD39CDFF
:1005B00038CD37CD36CD35CD34CD33CD32CD31CD2F
:1005C00030CD2FCD2ECD2DCD2CCD2BCD2ACD29CD5F
:1005D00028CD27CD26CD25CD24CD23CD22CD21CD8F
:1005E00020CD1FCD1ECD1DCD1CCD1BCD1ACD19CDBF
:1005F00018CD17CD16CD15CD14CD13CD12CD11CDEF
:100600000C94700003B3D1E0C09163000993CF77DD
:10061000C093630006CD0091630005BB00CD03B31A
:100620000F77009363000993FCCC0091710005BB28
:10063000F6CC03B300937100F4CCD2E0C09171000A
:10064000088105BBECCC03B3D2E0C09171000883F4
:10065000E8CCD2E0C09171000991C093710005BB54
:10066000DECC03B3D2E0C09171000993C093710056
:10067000D8CCF0916D00E0916E000591002B11F443
:10068000F1E0E0E0F0936D00E0936E0005BBC7CCB5
:10069000F1E0E0E0F0936D00E0936E00C2CC0AEA76
:1006A00005BBBDCC05E505BBBACC03B30ABDB9CCCF
:1006B00003B308BDB6CC0AB505BBB1CC08B505BBC4
:1006C000AECCD0926F00D0927000D5BAA8CC03B354
:1006D00010916F00112B39F0109170001ABD08BDF8
:1006E000D0926F009ECC1FEF10936F0000937000AC
:1006F00098CC03B30ABD08BD94CC09B105BB8FCC1F
:1007000003B309B98ECC0CB105BB89CC03B30CB9CA
:1007100088CC0BB10C7F1AB11370012B05BB7FCCB9
:1007200003B300FB0C7F1BB11370012B0BB90AB193
:1007300000F90AB976CC10B510B50AB102FB012F49
:10074000000F007F177013F9012B05BB68CC03B3B2
:1007500003FB1AB112F91AB9102F06950877006831
:100760001770012B00BD5DCC63B36F7163FD02C0D8
:10077000599801C0599A60FD02C0969801C0969A96
:1007800050CC65BB4CCC61FD05C003B35D9BFECF77
:100790000CB947CC62FD969A03B30CB95E9BFECFB1
:1007A0005E9A62FF3ECC96986E7F3BCC0FEFD0EF07
:1007B000C0E0109162005F990AC0112B39F000006F
:1007C0002197C9F71A95D0EFC0E0F5CF002705BBF8
:1007D00026CC0091620005BB22CC03B300936200DB
:1007E00020CC0091600005BB1ACC03B301700093CC
:1007F000600017CC0091610005BB11CC03B30093DE
:1008000061000FCC009160000FBB009161000EBB36
:1008100003B30DBBE29AE19AE199FECFDFBADEBAEB
:1008200000CC009160000FBB009161000EBBE09A0C
:100830000DB305BBDFBADEBAF2CB07B1017005BB61
:10084000EECB03B30062017207B9EBCB349A369A50
:10085000349BFECF05B105BBE2CB06B1077005BBEB
:10086000DECB03B30770006806B9DBCB0BB3087FA0
:1008700006950695069505BBD2CB03B30F71000F05
:10088000000F000F0BBBCDCB0AB3087F0695069572
:10089000069505BBC4CB03B30F71000F000F000F0B
:1008A00004600ABBBECB09B3087F06950695069582
:1008B00005BBB5CB03B30F71000F000F000F09BBD1
:1008C000B0CB0091640005BBAACB0091650005BBCD
:1008D000A6CB0091660005BBA2CB0091670005BBCB
:1008E0009ECB03B3009364009CCB03B300936500DD
:1008F00010916400019F109266000092670091CBF6
:1009000000916A0005BB8BCB00916B0005BB87CBC8
:1009100003B30F7700936A0084CB03B30F77009380
:100920006B007FCBE0916B00F0916A00F0FBF695D5
:10093000E7F9049105BB00916B0010916A000395E3
:100940000F7709F4139500936B001F7710936A00DB
:1009500066CB0091680005BB62CB0091690005BBC6
:100960005ECB03B30F73009368005BCB03B30093BC
:10097000690057CBF0916800E09169000591FF7321
:10098000F0936800E093690005BB49CB00916C00CF
:1009900005BBD0927200D0926C0041CB03B3D4E07F
:1009A000C09172000993C0937200CA3009F039CB2C
:1009B00011270091020405FF10E8CC2709910F3F91
:1009C00001F1000F70F4000F70F4000F70F4000FCD
:1009D00070F4000F70F4000F70F4000F70F4000F4B
:1009E00070F40AE328C102E426C103E324C106E34C
:1009F00022C109E320C10EE31EC10CE31CC10DE3BB
:100A00001AC109910F3F01F1000F70F4000F70F44B
:100A1000000F70F4000F70F4000F70F4000F70F40A
:100A2000000F70F4000F70F400E305C102E303C18E
:100A300001E301C105E3FFC008E3FDC007E3FBC01C
:100A400004E4F9C00BE3F7C009910F3FF1F0000F88
:100A500070F4000F70F4000F000F68F4000F68F4DA
:100A6000000F68F4000F68F4000F68F40EC006E48D
:100A7000E2C00FE2E0C004E3DEC00BE2DCC001E450
:100A8000DAC008E2D8C00FE3D6C009910F3F01F1E8
:100A9000000F70F4000F70F4000F70F4000F70F48A
:100AA000000F70F4000F70F4000F70F4000F70F47A
:100AB0000DE2C1C00EE2BFC009E2BDC00AE2BBC088
:100AC00000E1B9C007E2B7C005E2B5C006E2B3C0B5
:100AD00009910F3F01F1000F70F4000F70F4000F47
:100AE00070F4000F70F4000F70F4000F70F4000F3A
:100AF00070F4000F70F40CE29EC00DE09CC00BE09F
:100B00009AC00CE098C009E096C00FE094C003E2E0
:100B100092C004E290C009910F3F01F1000F70F400
:100B2000000F70F4000F70F4000F70F4000F70F4F9
:100B3000000F70F4000F70F4000F70F403E47BC03A
:100B40000EE079C00AE077C008E075C009E173C023
:100B500005E171C001E26FC002E26DC009910F3F73
:100B600001F1000F70F4000F70F4000F70F4000F2B
:100B700070F4000F70F4000F70F4000F70F4000FA9
:100B800070F406E158C002E056C006E054C007E029
:100B900052C004E150C002E14EC00FE14CC000E27F
:100BA0004AC009910F3F01F1000F70F4000F70F47B
:100BB000000F70F4000F70F4000F70F4000F70F469
:100BC000000F70F4000F70F408E135C003E033C08B
:100BD00004E031C003E12FC007E12DC005E02BC0C8
:100BE0000DE129C00EE127C009910F3F01F1000F6F
:100BF00070F4000F70F4000F70F4000F70F4000F29
:100C000070F4000F70F4000F70F4000F70F40AE13C
:100C100012C005E410C001E00EC007E40CC001E101
:100C20000AC008E408C00CE106C00BE104C0099149
:100C3000000F38F40027012B00936C00D092720053
:100C4000F0C900E4F8CFC5BAEAC9AA27CC24BB246E
:100C5000E8C9CC2811F4D5BAE2C9D3E0CB2D08817C
:100C6000C395BC2ECA9405BBDAC90FE50DBF04E0DD
:100C70000EBF02E701BB0FE302BB00E004BB05BBF4
:100C800007BB08BB0BBB04E00ABB0FEF1FEF22E35F
:100C9000DA980A95F1F71A95E1F72A95D1F7DA9AD9
:100CA000DD24EE24E0946627AA24B3E0AA27BB241F
:100CB000CC2400270BB908E10AB906E800BD0027DB
:100CC00000BD05E009B90CB10CB15E9A0DEA0FBD8B
:100CD00009E00EBD00E207B900E806B9C0E6D0E0C1
:100CE0001FEF23E0002709931A95E9F72A95D9F712
:100CF00000EC0BBF00E005BFF1E0F0936D00E0E019
:080D0000E0936E00789491C9A4
:103F000003B30F77F02FF695EE2700FBE7F913E0E8
:103F10000E94C41F11E10E94C41FF02FF695EE27E6
:103F200000FBE7F9DA9820E4D1E0C0916300099042
:103F3000199011E00E94C41F32962A95C1F7F02F04
:103F4000F695EE2700FBE7F915E00E94C41F11E18A
:103F50000E94C41F07B706FF04C001E10E94C41FEE
:103F6000F9CFCC27C0936300C0E0D1E020E8002760
:103F700009932A95E9F7DA9A8F98829BFECF0F91E1
:103F80000F9178940C94150017BFE895FFFF00007F
:0A3F9000000017B710FDFDCF0895E3
:00000001FF
