:020000020000FC
:100000000C940F068F9A07C08F9A00C0F1E0E6B3F8
:100010007FB664BA0994F2E0E6B37FB609940C9413
:0600200025000C943000E5
:10002A0064FFFECF5F9BFCCF8CB08C92A395A39408
:0C003A00AA2809F0F5CFAA949394F2CF05
:0C004A008F98839BFECF54BA7FBE1895A0
:0A0060008F98829BFECF7FBE18959B
:1001000043504320424F4F535445522B0D0A444510
:1001100056454C4F5045442042590D0A41475241E3
:1001200046494F54495320504554524F53200D0ACD
:1001300056455253494F4E20312E32200D0A466506
:100140006272756172792C20322C20323030352069
:100150000D0A0D0A616E746974656340686F746D91
:0801600061696C2E636F6D00F4
:100200002AC22CC234C236C256C25BC260C271C29C
:1002100006CFAAC2BCC293C2C2C2CAC2E0C2FBC25B
:10022000EAC2F2C291C3FBCEFACEF5C147C34AC3BC
:1002300057C36DC370C37CC3E0C4E5C403C3F4C239
:1002400010C31DC320C323C326C3EFC116C20FC2F0
:100400000EC40DC42EC130C159C15EC167C17DC1CA
:1004100098C107CEC0C186C1C6C1CEC1D1C1FFC17E
:10042000EEC1FFCD98C2ECC0EDC0F9C04FC253C2BF
:10043000F8CD75C279C2F5CDE2C3F3CD0AC2FBC1D6
:10044000F0CD2DC230C2EDCDECCDFEC01DC12FC10F
:100600000C94801F03B3D1E0C09163000993CF77AE
:10061000C093630006CD0091630005BB00CD03B31A
:100620000F77009363000993FCCCF0916D00E0918B
:100630006E000591002B11F4F1E0E0E0F0936D0005
:10064000E0936E0005BBEBCCF1E0E0E0F0936D00D1
:10065000E0936E00E6CC0AEA05BBE1CC05E505BBFC
:10066000DECC03B30ABDDDCC03B308BDDACC0AB5DA
:1006700005BBD5CC08B505BBD2CC002700936F00D5
:100680000093700005BBCBCC03B310916F00112B0E
:1006900041F0109170001ABD08BD002700936F0053
:1006A000C0CC1FEF10936F0000937000BACC03B35F
:1006B0000ABD08BDB6CC09B105BBB1CC03B309B9BD
:1006C000B0CC0CB105BBABCC03B30CB9AACC0BB10D
:1006D0000C7F1AB11370012B05BBA1CC03B300FB37
:1006E0000C7F1BB11370012B0BB90AB100F90AB9C9
:1006F00098CC10B510B50AB102FB012F000F007F96
:10070000177013F9012B05BB8ACC03B303FB1AB195
:1007100012F91AB9102F0695087700681770012B87
:1007200000BD7FCC63B36F7163FD02C0599801C0F7
:10073000599A60FD02C0969801C0969A72CC65BB2A
:100740006ECC61FD05C003B35D9BFECF0CB969CCD7
:1007500062FD969A03B30CB95E9BFECF5E9A62FF70
:1007600060CC96986E7F5DCC0FEFD0EFC0E010911B
:1007700062005F990AC0112B39F000002197C9F778
:100780001A95D0EFC0E0F5CF002705BB48CC00910B
:10079000620005BB44CC03B30093620042CC0091DD
:1007A000600005BB3CCC03B301700093600039CC02
:1007B0000091610005BB33CC03B30093610031CCE1
:1007C000009160000FBB009161000EBB03B30DBB35
:1007D000E29AE19AE199FECF5FBA5EBA22CC00912B
:1007E00060000FBB009161000EBBE09A0DB305BB2A
:1007F0005FBA5EBA14CC07B1017005BB10CC03B36D
:100800000062017207B90DCC349A369A349BFECF40
:1008100005B105BB04CC06B1077005BB00CC03B322
:100820000770006806B9FDCB0BB3087F06950695E7
:10083000069505BBF4CB03B30F71000F000F000F3B
:100840000BBBEFCB0AB3087F06950695069505BB53
:10085000E6CB03B30F71000F000F000F04600ABB5B
:10086000E0CB09B3087F06950695069505BBD7CB67
:1008700003B30F71000F000F000F09BBD2CB009123
:10088000640005BBCCCB0091650005BBC8CB0091D3
:10089000660005BBC4CB0091670005BBC0CB03B3AA
:1008A00000936400BECB03B3009365001091640015
:1008B000019F1092660000926700B3CB00916A001E
:1008C00005BBADCB00916B0005BBA9CB03B30F7784
:1008D00000936A00A6CB03B30F7700936B00A1CB04
:1008E000E0916B00F0916A00F0FBF695E7F9049156
:1008F00005BB00916B0010916A0003950F7709F416
:10090000139500936B001F7710936A0088CB0091BA
:10091000680005BB84CB0091690005BB80CB03B3A5
:100920000F73009368007DCB03B30093690079CB0C
:10093000F0916800E09169000591FF73F093680001
:10094000E093690005BB6BCB00916C0005BBBB2439
:10095000B0926C0064CB03B3D2E0CB2D0993BC2ED4
:10096000CA3009F05ECB11270091020205FF10E8A2
:10097000CC2709910F3F01F1000F70F4000F70F4C4
:10098000000F70F4000F70F4000F70F4000F70F49B
:10099000000F70F4000F70F40AE328C102E426C1CE
:1009A00003E324C106E322C109E320C10EE31EC113
:1009B0000CE31CC10DE31AC109910F3F01F1000FB7
:1009C00070F4000F70F4000F70F4000F70F4000F5B
:1009D00070F4000F70F4000F70F4000F70F400E377
:1009E00005C102E303C101E301C105E3FFC008E360
:1009F000FDC007E3FBC004E4F9C00BE3F7C00991B5
:100A00000F3FF1F0000F70F4000F70F4000F000FB3
:100A100068F4000F68F4000F68F4000F68F4000F2A
:100A200068F40EC006E4E2C00FE2E0C004E3DEC0FA
:100A30000BE2DCC001E4DAC008E2D8C00FE3D6C0A4
:100A400009910F3F01F1000F70F4000F70F4000FD7
:100A500070F4000F70F4000F70F4000F70F4000FCA
:100A600070F4000F70F40DE2C1C00EE2BFC009E2E5
:100A7000BDC00AE2BBC000E1B9C007E2B7C005E2F1
:100A8000B5C006E2B3C009910F3F01F1000F70F449
:100A9000000F70F4000F70F4000F70F4000F70F48A
:100AA000000F70F4000F70F4000F70F40CE29EC0A1
:100AB0000DE09CC00BE09AC00CE098C009E096C025
:100AC0000FE094C003E292C004E290C009910F3F8E
:100AD00001F1000F70F4000F70F4000F70F4000FBC
:100AE00070F4000F70F4000F70F4000F70F4000F3A
:100AF00070F403E47BC00EE079C00AE077C008E040
:100B000075C009E173C005E171C001E26FC002E286
:100B10006DC009910F3F01F1000F70F4000F70F4E8
:100B2000000F70F4000F70F4000F70F4000F70F4F9
:100B3000000F70F4000F70F406E158C002E056C0D8
:100B400006E054C007E052C004E150C002E14EC0CC
:100B50000FE14CC000E24AC009910F3F01F1000FC4
:100B600070F4000F70F4000F70F4000F70F4000FB9
:100B700070F4000F70F4000F70F4000F70F408E1CF
:100B800035C003E033C004E031C003E12FC007E10A
:100B90002DC005E02BC00DE129C00EE127C0099151
:100BA0000F3F01F1000F70F4000F70F4000F70F4AC
:100BB000000F70F4000F70F4000F70F4000F70F469
:100BC000000F70F40AE112C005E410C001E00EC08D
:100BD00007E40CC001E10AC008E408C00CE106C04B
:100BE0000BE104C00991000F30F40027012B0093A2
:100BF0006C00BB2416CA00E4F9CFA5BA10CAAA2714
:100C0000AA2499240ECAAA2811F455BA08CAD3E016
:100C1000C92D0881C3959C2EAA9405BB00CA0FE577
:100C20000DBF04E00EBF02E701BB0FE302BB00E013
:100C300004BB05BB07BB08BB0BBB04E00ABB0FEF43
:100C40001FEF22E3DA980A95F1F71A95E1F72A9552
:100C5000D1F7DA9A55246624609466278824B3E095
:100C6000AA279924AA24BB2400270BB908E10AB9B2
:100C700006E800BD002700BD05E009B90CB10CB1C4
:100C80005E9A0DEA0FBD09E00EBD00E207B900E86B
:100C900006B9C0E6D0E01FEF23E0002709931A95BC
:100CA000E9F72A95D9F700EC0BBF00E005BFF1E0AA
:0E0CB000F0936D00E0E0E0936E007894B6C91A
:103F000003B30F77F02FF695EE2700FBE7F913E0E8
:103F10000E94C41F11E10E94C41FF02FF695EE27E6
:103F200000FBE7F9DA9820E4D1E0C0916300099042
:103F3000199011E00E94C41F32962A95C1F7F02F04
:103F4000F695EE2700FBE7F915E00E94C41F11E18A
:103F50000E94C41F07B706FF04C001E10E94C41FEE
:103F6000F9CFCC27C0936300C0E0D1E020E8002760
:103F700009932A95E9F7DA9A8F98829BFECF0F91E1
:103F80000F9178940C94150017BFE895FFFF00007F
:0A3F9000000017B710FDFDCF0895E3
:00000001FF
