:020000020000FC
:100000000C9427068F9A05C08F9A00C0E6B3F1E0E2
:100010000994E6B3F2E009948F98839BFECF54BA1B
:1000200018958F98829BFECF189502C643504320A7
:10003000424F4F535445522B0D0A444556454C4FA1
:100040005045442042590D0A4147524146494F54B8
:10005000495320504554524F53200D0A5645525390
:10006000494F4E20312E30200D0A31302F31312FA3
:06007000323030342000A4
:1002000025C228C209CF08CF2FC235C23BC24DC27A
:1002100003CF88C29BC270C2A2C2ABC2C2C2CEC24E
:10022000DFC2D6C297C3F8CEF7CEF5C134C338C308
:1002300046C35DC361C36EC3E7C4EDC4EAC2DAC29C
:0C024000F8C206C30AC30EC312C3F0C10B
:1004000026C425C42BC12DC133C139C143C15AC132
:1004100076C107CEA0C163C1A7C1B0C1B3C1D3C16A
:10042000E4C1FFCD9FC2ECC0EDC0FAC03EC242C2E3
:10043000F8CD67C26BC2F5CDEAC3F3CDF2C1E2C11C
:0C044000F0CD1AC21DC2EDCDECCDEBCD0D
:100600000C94801F03B3D1E0C09163000993CF77AE
:10061000C093630006CD64BA0091630005BBFCCCB7
:1006200003B30F77009363000993FBCC64BAF09196
:100630006D00E0916E000591002B11F4F0E0ECE20A
:10064000F0936D00E0936E0005BBE6CC64BA0AEA55
:1006500005BBE2CC64BA05E505BBDECC03B30ABD3D
:10066000E0CC03B308BDDDCC64BA09B105BBD4CC82
:1006700003B309B9D6CC64BA0CB105BBCDCC03B376
:100680000CB9CFCC64BA0BB10C7F1AB11370012B2B
:1006900005BBC2CC03B300FB0C7F1BB11370012B55
:1006A0000BB90AB100F90AB9BCCC64BA10B510B5DF
:1006B0000AB102FB012F000F007F177013F9012B05
:1006C00005BBAACC03B303FB1AB112F91AB9102F58
:1006D0000695087700681770012B00BDA2CC63B3A4
:1006E0006F7163FD02C0599801C0599A60FD02C044
:1006F000969801C0969A95CC64BA65BB8DCC61FD85
:1007000005C003B35D9BFECF0CB98BCC62FD969AFE
:1007100003B30CB95E9BFECF5E9A62FF82CC9698C3
:100720006E7F7FCC64BA0FEFD0EFC0E01091620013
:100730005F990AC0112B39F000002197C9F71A956B
:10074000D0EFC0E0F5CF002705BB66CC64BA0091BE
:10075000620005BB61CC03B30093620062CC64BA53
:100760000091600005BB58CC03B30170009360009A
:1007700058CC64BA0091610005BB4ECC03B3009322
:1007800061004FCC009160000FBB009161000EBB77
:1007900003B30DBBE29AE19AE199FECF5FBA5EBA6C
:1007A00040CC64BA009160000FBB009161000EBBA9
:1007B000E09A0DB305BB5FBA5EBA2ECC64BA07B13E
:1007C000017005BB29CC03B30062017207B929CCC3
:1007D00064BA349A369A349BFECF05B105BB1CCC63
:1007E00064BA06B1077005BB17CC03B30770006885
:1007F00006B917CC64BA0BB3087F06950695069523
:1008000005BB0ACC03B30F71000F000F000F0BBB29
:1008100008CC64BA0AB3087F06950695069505BB11
:10082000FBCB03B30F71000F000F000F04600ABB76
:10083000F8CB64BA09B3087F06950695069505BB03
:10084000EBCB03B30F71000F000F000F09BBE9CB17
:1008500064BA0091640005BBDFCB64BA0091650007
:1008600005BBDACB64BA0091660005BBD5CB64BA90
:100870000091670005BBD0CB03B300936400D1CBDC
:1008800003B30093650010916400019F109266000D
:1008900000926700C6CB64BA00916A0005BBBCCB6E
:1008A00064BA00916B0005BBB7CB03B30F7700931D
:1008B0006A00B7CB03B30F7700936B00B2CB64BA77
:1008C000E0916B00F0916A00F0FBF695E7F9049176
:1008D00005BB00916B0010916A0003950F7709F436
:1008E000139500936B001F7710936A0095CB64BA41
:1008F0000091680005BB90CB64BA0091690005BB0C
:100900008BCB03B30F73009368008BCB03B30093BF
:10091000690087CB64BAF0916800E09169000591A5
:10092000FF73F0936800E093690005BB75CB64BA70
:100930000FB5112707FD1FEF15BB6ECB03B3002BBF
:1009400021F40FBD01E00EBD6CCB0DEA0FBD09E037
:100950000EBD67CB64BA00916C0005BBBB24B0929E
:100960006C005ACB03B3D2E0CB2D0993BC2ECA3016
:1009700009F057CB11270091020205FF10E8CC27A0
:1009800009910F3F01F1000F70F4000F70F4000F98
:1009900070F4000F70F4000F70F4000F70F4000F8B
:1009A00070F4000F70F40AE328C102E426C103E3E7
:1009B00024C106E322C109E320C10EE31EC10CE3FA
:1009C0001CC10DE31AC109910F3F01F1000F70F432
:1009D000000F70F4000F70F4000F70F4000F70F44B
:1009E000000F70F4000F70F4000F70F400E305C105
:1009F00002E303C101E301C105E3FFC008E3FDC059
:100A000007E3FBC004E4F9C00BE3F7C009910F3F13
:100A1000F1F0000F70F4000F70F4000F000F68F495
:100A2000000F68F4000F68F4000F68F4000F68F41A
:100A30000EC006E4E2C00FE2E0C004E3DEC00BE259
:100A4000DCC001E4DAC008E2D8C00FE3D6C00991E7
:100A50000F3F01F1000F70F4000F70F4000F70F4FD
:100A6000000F70F4000F70F4000F70F4000F70F4BA
:100A7000000F70F40DE2C1C00EE2BFC009E2BDC0BC
:100A80000AE2BBC000E1B9C007E2B7C005E2B5C0E9
:100A900006E2B3C009910F3F01F1000F70F4000F9F
:100AA00070F4000F70F4000F70F4000F70F4000F7A
:100AB00070F4000F70F4000F70F40CE29EC00DE0B3
:100AC0009CC00BE09AC00CE098C009E096C00FE013
:100AD00094C003E292C004E290C009910F3F01F17B
:100AE000000F70F4000F70F4000F70F4000F70F43A
:100AF000000F70F4000F70F4000F70F4000F70F42A
:100B000003E47BC00EE079C00AE077C008E075C05E
:100B100009E173C005E171C001E26FC002E26DC07E
:100B200009910F3F01F1000F70F4000F70F4000FF6
:100B300070F4000F70F4000F70F4000F70F4000FE9
:100B400070F4000F70F406E158C002E056C006E0F1
:100B500054C007E052C004E150C002E14EC00FE1B2
:100B60004CC000E24AC009910F3F01F1000F70F440
:100B7000000F70F4000F70F4000F70F4000F70F4A9
:100B8000000F70F4000F70F4000F70F408E135C02E
:100B900003E033C004E031C003E12FC007E12DC002
:100BA00005E02BC00DE129C00EE127C009910F3FE0
:100BB00001F1000F70F4000F70F4000F70F4000FDB
:100BC00070F4000F70F4000F70F4000F70F4000F59
:100BD00070F40AE112C005E410C001E00EC007E4A1
:100BE0000CC001E10AC008E408C00CE106C00BE13A
:100BF00004C00991000F30F40027012B00936C0012
:100C0000BB240FCA00E4F9CF64BAA5BA05CAAA2763
:100C1000AA24992406CA64BAAA2811F455BAFCC9B0
:100C2000D3E0C92D0881C3959C2EAA9405BBF4C9B5
:100C300064FFFECF8BB087FEF8C98CB08C92A39571
:100C4000A394AA2809F0F1C9AA949394F1CF0FE5CF
:100C50000DBF04E00EBF02E701BB0FE302BB00E0E3
:100C600004BB05BB07BB08BB0BBB04E00ABB0FEF13
:100C70001FEF22E3DA980A95F1F71A95E1F72A9522
:100C8000D1F7DA9A55246624609466278824B3E065
:100C9000AA279924AA24BB2400270BB908E10AB982
:100CA00006E800BD002700BD05E009B90CB10CB194
:100CB0005E9A0DEA0FBD09E00EBD00E207B900E83B
:100CC00006B9C0E6D0E01FEF23E0002709931A958C
:100CD000E9F72A95D9F700EC0BBF00E005BFF0E07B
:0E0CE000F0936D00ECE2E0936E0078949EC9F4
:103F000003B30F77F02FF695EE2700FBE7F913E0E8
:103F10000E94C41F11E10E94C41FF02FF695EE27E6
:103F200000FBE7F9DA9820E4D1E0C0916300099042
:103F3000199011E00E94C41F32962A95C1F7F02F04
:103F4000F695EE2700FBE7F915E00E94C41F11E18A
:103F50000E94C41F07B706FF04C001E10E94C41FEE
:103F6000F9CFCC27C0936300C0E0D1E020E8002760
:103F700009932A95E9F7DA9A8F98829BFECF0F91E1
:103F80000F9178940C94150017BFE895FFFF00007F
:0A3F9000000017B710FDFDCF0895E3
:00000001FF
